{
  "address": "0x7947AFEceaFfa705A6E2630A28d9ad1f1eCAfF46",
  "abi": [
    {
      "inputs": [
        {
          "internalType": "address",
          "name": "VRFCoordinatorV2",
          "type": "address"
        },
        {
          "internalType": "uint256",
          "name": "entranceFee",
          "type": "uint256"
        },
        {
          "internalType": "bytes32",
          "name": "keyHash",
          "type": "bytes32"
        },
        {
          "internalType": "uint64",
          "name": "subscriptionId",
          "type": "uint64"
        },
        {
          "internalType": "uint32",
          "name": "callBackGasLimit",
          "type": "uint32"
        },
        {
          "internalType": "address payable",
          "name": "_treasuryWallet",
          "type": "address"
        }
      ],
      "stateMutability": "nonpayable",
      "type": "constructor"
    },
    {
      "inputs": [
        {
          "internalType": "address",
          "name": "have",
          "type": "address"
        },
        {
          "internalType": "address",
          "name": "want",
          "type": "address"
        }
      ],
      "name": "OnlyCoordinatorCanFulfill",
      "type": "error"
    },
    {
      "inputs": [],
      "name": "OnlySimulatedBackend",
      "type": "error"
    },
    {
      "inputs": [
        {
          "internalType": "uint256",
          "name": "currentBalance",
          "type": "uint256"
        },
        {
          "internalType": "uint256",
          "name": "numPlayers",
          "type": "uint256"
        },
        {
          "internalType": "uint256",
          "name": "raffleState",
          "type": "uint256"
        }
      ],
      "name": "Raffle__UpkeepNotNeeded",
      "type": "error"
    },
    {
      "anonymous": false,
      "inputs": [
        {
          "indexed": true,
          "internalType": "address",
          "name": "previousOwner",
          "type": "address"
        },
        {
          "indexed": true,
          "internalType": "address",
          "name": "newOwner",
          "type": "address"
        }
      ],
      "name": "OwnershipTransferred",
      "type": "event"
    },
    {
      "anonymous": false,
      "inputs": [
        {
          "indexed": true,
          "internalType": "address",
          "name": "player",
          "type": "address"
        }
      ],
      "name": "RaffleEnter",
      "type": "event"
    },
    {
      "anonymous": false,
      "inputs": [
        {
          "indexed": false,
          "internalType": "address",
          "name": "to",
          "type": "address"
        },
        {
          "indexed": false,
          "internalType": "uint256",
          "name": "amount",
          "type": "uint256"
        }
      ],
      "name": "RefundFailed",
      "type": "event"
    },
    {
      "anonymous": false,
      "inputs": [
        {
          "indexed": false,
          "internalType": "address",
          "name": "to",
          "type": "address"
        },
        {
          "indexed": false,
          "internalType": "uint256",
          "name": "amount",
          "type": "uint256"
        }
      ],
      "name": "RefundIssued",
      "type": "event"
    },
    {
      "anonymous": false,
      "inputs": [
        {
          "indexed": true,
          "internalType": "uint256",
          "name": "requestId",
          "type": "uint256"
        }
      ],
      "name": "RequestedRaffleWinnerFirst",
      "type": "event"
    },
    {
      "anonymous": false,
      "inputs": [
        {
          "indexed": true,
          "internalType": "uint256",
          "name": "requestId",
          "type": "uint256"
        }
      ],
      "name": "RequestedRaffleWinnerSecond",
      "type": "event"
    },
    {
      "anonymous": false,
      "inputs": [
        {
          "indexed": true,
          "internalType": "uint256",
          "name": "requestId",
          "type": "uint256"
        }
      ],
      "name": "RequestedRaffleWinnerThird",
      "type": "event"
    },
    {
      "anonymous": false,
      "inputs": [
        {
          "indexed": true,
          "internalType": "address",
          "name": "newTreasury",
          "type": "address"
        }
      ],
      "name": "TreasuryChanged",
      "type": "event"
    },
    {
      "anonymous": false,
      "inputs": [
        {
          "indexed": true,
          "internalType": "address",
          "name": "winner",
          "type": "address"
        },
        {
          "indexed": false,
          "internalType": "uint256",
          "name": "prize",
          "type": "uint256"
        }
      ],
      "name": "WinnerPicked",
      "type": "event"
    },
    {
      "inputs": [
        {
          "internalType": "address",
          "name": "_wallet",
          "type": "address"
        }
      ],
      "name": "addSpecialWallet",
      "outputs": [],
      "stateMutability": "nonpayable",
      "type": "function"
    },
    {
      "inputs": [
        {
          "internalType": "bytes",
          "name": "",
          "type": "bytes"
        }
      ],
      "name": "checkUpkeep",
      "outputs": [
        {
          "internalType": "bool",
          "name": "upkeepNeeded",
          "type": "bool"
        },
        {
          "internalType": "bytes",
          "name": "",
          "type": "bytes"
        }
      ],
      "stateMutability": "view",
      "type": "function"
    },
    {
      "inputs": [],
      "name": "claimWinnings",
      "outputs": [],
      "stateMutability": "nonpayable",
      "type": "function"
    },
    {
      "inputs": [],
      "name": "enterRaffle",
      "outputs": [],
      "stateMutability": "payable",
      "type": "function"
    },
    {
      "inputs": [],
      "name": "getAllPlayers",
      "outputs": [
        {
          "internalType": "address payable[]",
          "name": "",
          "type": "address[]"
        }
      ],
      "stateMutability": "view",
      "type": "function"
    },
    {
      "inputs": [],
      "name": "getBalanceWithoutPlatformFund",
      "outputs": [
        {
          "internalType": "uint256",
          "name": "",
          "type": "uint256"
        }
      ],
      "stateMutability": "view",
      "type": "function"
    },
    {
      "inputs": [],
      "name": "getContractBalance",
      "outputs": [
        {
          "internalType": "uint256",
          "name": "",
          "type": "uint256"
        }
      ],
      "stateMutability": "view",
      "type": "function"
    },
    {
      "inputs": [],
      "name": "getEntranceFee",
      "outputs": [
        {
          "internalType": "uint256",
          "name": "",
          "type": "uint256"
        }
      ],
      "stateMutability": "view",
      "type": "function"
    },
    {
      "inputs": [],
      "name": "getLastTimeStamp",
      "outputs": [
        {
          "internalType": "uint256",
          "name": "",
          "type": "uint256"
        }
      ],
      "stateMutability": "view",
      "type": "function"
    },
    {
      "inputs": [],
      "name": "getNumberOfPlayers",
      "outputs": [
        {
          "internalType": "uint256",
          "name": "",
          "type": "uint256"
        }
      ],
      "stateMutability": "view",
      "type": "function"
    },
    {
      "inputs": [
        {
          "internalType": "uint256",
          "name": "index",
          "type": "uint256"
        }
      ],
      "name": "getPlayer",
      "outputs": [
        {
          "internalType": "address",
          "name": "",
          "type": "address"
        }
      ],
      "stateMutability": "view",
      "type": "function"
    },
    {
      "inputs": [],
      "name": "getPlayerContributionsPercentages",
      "outputs": [
        {
          "internalType": "address[]",
          "name": "",
          "type": "address[]"
        },
        {
          "internalType": "uint256[]",
          "name": "",
          "type": "uint256[]"
        }
      ],
      "stateMutability": "view",
      "type": "function"
    },
    {
      "inputs": [],
      "name": "getRaffleState",
      "outputs": [
        {
          "internalType": "enum Raffle.RaffleState",
          "name": "",
          "type": "uint8"
        }
      ],
      "stateMutability": "view",
      "type": "function"
    },
    {
      "inputs": [],
      "name": "getRecentWinners",
      "outputs": [
        {
          "internalType": "address payable[]",
          "name": "",
          "type": "address[]"
        }
      ],
      "stateMutability": "view",
      "type": "function"
    },
    {
      "inputs": [],
      "name": "getReserveFunds",
      "outputs": [
        {
          "internalType": "uint256",
          "name": "",
          "type": "uint256"
        }
      ],
      "stateMutability": "view",
      "type": "function"
    },
    {
      "inputs": [],
      "name": "getSpecialWallets",
      "outputs": [
        {
          "internalType": "address[]",
          "name": "",
          "type": "address[]"
        }
      ],
      "stateMutability": "view",
      "type": "function"
    },
    {
      "inputs": [
        {
          "internalType": "address",
          "name": "",
          "type": "address"
        }
      ],
      "name": "hasUsedFreeEntry",
      "outputs": [
        {
          "internalType": "bool",
          "name": "",
          "type": "bool"
        }
      ],
      "stateMutability": "view",
      "type": "function"
    },
    {
      "inputs": [],
      "name": "i_entranceFee",
      "outputs": [
        {
          "internalType": "uint256",
          "name": "",
          "type": "uint256"
        }
      ],
      "stateMutability": "view",
      "type": "function"
    },
    {
      "inputs": [
        {
          "internalType": "address",
          "name": "",
          "type": "address"
        }
      ],
      "name": "isPlayerEntered",
      "outputs": [
        {
          "internalType": "bool",
          "name": "",
          "type": "bool"
        }
      ],
      "stateMutability": "view",
      "type": "function"
    },
    {
      "inputs": [],
      "name": "owner",
      "outputs": [
        {
          "internalType": "address",
          "name": "",
          "type": "address"
        }
      ],
      "stateMutability": "view",
      "type": "function"
    },
    {
      "inputs": [
        {
          "internalType": "bytes",
          "name": "",
          "type": "bytes"
        }
      ],
      "name": "performUpkeep",
      "outputs": [],
      "stateMutability": "nonpayable",
      "type": "function"
    },
    {
      "inputs": [
        {
          "internalType": "uint256",
          "name": "requestId",
          "type": "uint256"
        },
        {
          "internalType": "uint256[]",
          "name": "randomWords",
          "type": "uint256[]"
        }
      ],
      "name": "rawFulfillRandomWords",
      "outputs": [],
      "stateMutability": "nonpayable",
      "type": "function"
    },
    {
      "inputs": [],
      "name": "refundAllParticipants",
      "outputs": [],
      "stateMutability": "nonpayable",
      "type": "function"
    },
    {
      "inputs": [
        {
          "internalType": "address",
          "name": "_wallet",
          "type": "address"
        }
      ],
      "name": "removeSpecialWallet",
      "outputs": [],
      "stateMutability": "nonpayable",
      "type": "function"
    },
    {
      "inputs": [],
      "name": "renounceOwnership",
      "outputs": [],
      "stateMutability": "nonpayable",
      "type": "function"
    },
    {
      "inputs": [],
      "name": "reserveFunds",
      "outputs": [
        {
          "internalType": "uint256",
          "name": "",
          "type": "uint256"
        }
      ],
      "stateMutability": "view",
      "type": "function"
    },
    {
      "inputs": [
        {
          "internalType": "uint256",
          "name": "",
          "type": "uint256"
        }
      ],
      "name": "s_players",
      "outputs": [
        {
          "internalType": "address payable",
          "name": "",
          "type": "address"
        }
      ],
      "stateMutability": "view",
      "type": "function"
    },
    {
      "inputs": [
        {
          "internalType": "uint256",
          "name": "",
          "type": "uint256"
        }
      ],
      "name": "s_recentWinner",
      "outputs": [
        {
          "internalType": "address payable",
          "name": "",
          "type": "address"
        }
      ],
      "stateMutability": "view",
      "type": "function"
    },
    {
      "inputs": [
        {
          "internalType": "uint256",
          "name": "_newEntranceFee",
          "type": "uint256"
        }
      ],
      "name": "setEntranceFee",
      "outputs": [],
      "stateMutability": "nonpayable",
      "type": "function"
    },
    {
      "inputs": [
        {
          "internalType": "address payable",
          "name": "_newTreasury",
          "type": "address"
        }
      ],
      "name": "setTreasury",
      "outputs": [],
      "stateMutability": "nonpayable",
      "type": "function"
    },
    {
      "inputs": [
        {
          "internalType": "uint256",
          "name": "",
          "type": "uint256"
        }
      ],
      "name": "specialWallets",
      "outputs": [
        {
          "internalType": "address",
          "name": "",
          "type": "address"
        }
      ],
      "stateMutability": "view",
      "type": "function"
    },
    {
      "inputs": [
        {
          "internalType": "address payable",
          "name": "_to",
          "type": "address"
        }
      ],
      "name": "transfer",
      "outputs": [],
      "stateMutability": "nonpayable",
      "type": "function"
    },
    {
      "inputs": [
        {
          "internalType": "address",
          "name": "newOwner",
          "type": "address"
        }
      ],
      "name": "transferOwnership",
      "outputs": [],
      "stateMutability": "nonpayable",
      "type": "function"
    },
    {
      "inputs": [
        {
          "internalType": "address payable",
          "name": "_to",
          "type": "address"
        }
      ],
      "name": "transferReserve",
      "outputs": [],
      "stateMutability": "nonpayable",
      "type": "function"
    },
    {
      "inputs": [
        {
          "internalType": "address payable",
          "name": "_to",
          "type": "address"
        }
      ],
      "name": "transferTreasuryFunds",
      "outputs": [],
      "stateMutability": "nonpayable",
      "type": "function"
    },
    {
      "inputs": [],
      "name": "treasuryFund",
      "outputs": [
        {
          "internalType": "uint256",
          "name": "",
          "type": "uint256"
        }
      ],
      "stateMutability": "view",
      "type": "function"
    },
    {
      "inputs": [],
      "name": "treasuryWallet",
      "outputs": [
        {
          "internalType": "address payable",
          "name": "",
          "type": "address"
        }
      ],
      "stateMutability": "view",
      "type": "function"
    },
    {
      "inputs": [
        {
          "internalType": "address",
          "name": "",
          "type": "address"
        }
      ],
      "name": "winnings",
      "outputs": [
        {
          "internalType": "uint256",
          "name": "",
          "type": "uint256"
        }
      ],
      "stateMutability": "view",
      "type": "function"
    },
    {
      "stateMutability": "payable",
      "type": "receive"
    }
  ],
  "transactionHash": "0x41a827aff0792e9a2a08c7e60455030bd42eba4a0469b317746bf645b78a7cae",
  "args": [
    "0x50d47e4142598E3411aA864e08a44284e471AC6f",
    "10000000000000000",
    "0x027f94ff1465b3525f9fc03e9ff7d6d2c0953482246dd6ae07570c45d6631414",
    "146",
    "2500000",
    "0xb3757a0808Dc4b4Ae05386245d058ff6cFe1Ce31"
  ],
  "numDeployments": 16,
  "solcInputHash": "82107fe76eeb059d3a4dd3ec57dfdc5a",
  "bytecode": "0x6101206040523480156200001257600080fd5b50604051620024f6380380620024f6833981016040819052620000359162000115565b6001600160a01b0386166080526200004d33620000ac565b600180556002949094556001600160a01b0394851660a05260c0929092526001600160401b031660e05263ffffffff1661010052600d805460ff1916905542600e5560048054919092166001600160a01b0319909116179055620001a5565b600080546001600160a01b038381166001600160a01b0319831681178455604051919092169283917f8be0079c531659141344cd1fd0a4f28419497f9722a3daafe3b4186f6b6457e09190a35050565b6001600160a01b03811681146200011257600080fd5b50565b60008060008060008060c087890312156200012f57600080fd5b86516200013c81620000fc565b6020880151604089015160608a015192985090965094506001600160401b03811681146200016957600080fd5b608088015190935063ffffffff811681146200018457600080fd5b60a08801519092506200019781620000fc565b809150509295509295509295565b60805160a05160c05160e05161010051612305620001f16000396000610dc801526000610d9101526000610d6b01526000610e070152600081816108c2015261090401526123056000f3fe6080604052600436106102295760003560e01c80639f17252a11610123578063e55ae4e8116100ab578063f077b9741161006f578063f077b9741461063e578063f0f4426014610653578063f2fde38b14610673578063fd6673f514610693578063fe56f5a0146106a857600080fd5b8063e55ae4e81461058a578063e67d6a29146105aa578063ea3a1499146105da578063ee78635514610607578063efa1c4821461061c57600080fd5b8063c1c244e8116100f2578063c1c244e8146104dd578063d604e29b146104f2578063e044e9c314610532578063e0c4f12d14610554578063e2a6b1481461056a57600080fd5b80639f17252a14610473578063ae771f6b14610488578063b401faf1146104a8578063bfc48959146104bd57600080fd5b80634585e33b116101b15780636f9fb98a116101755780636f9fb98a14610401578063715018a61461041457806372a9e232146104295780637ea3e6c11461043f5780638da5cb5b1461045557600080fd5b80634585e33b146103505780634626402b146103705780634edbf60a146103905780635d2f3d3e146103b35780636e04ff0d146103d357600080fd5b80631fe543e3116101f85780631fe543e3146102bb5780632cfcc539146102db57806330216078146102e35780634081ca2b1461030357806342aaa9e41461033b57600080fd5b806309bc33a7146102355780630ee52dfb14610259578063115cbaf51461027b5780631a6952301461029b57600080fd5b3661023057005b600080fd5b34801561024157600080fd5b506002545b6040519081526020015b60405180910390f35b34801561026557600080fd5b50610279610274366004611de3565b6106c8565b005b34801561028757600080fd5b50600d5460ff166040516102509190611e1d565b3480156102a757600080fd5b506102796102b6366004611de3565b6107db565b3480156102c757600080fd5b506102796102d6366004611e8c565b6108b7565b61027961093b565b3480156102ef57600080fd5b506102796102fe366004611de3565b610c3d565b34801561030f57600080fd5b5061032361031e366004611f3e565b610c97565b6040516001600160a01b039091168152602001610250565b34801561034757600080fd5b50610246610cc1565b34801561035c57600080fd5b5061027961036b366004611f57565b610ce3565b34801561037c57600080fd5b50600454610323906001600160a01b031681565b34801561039c57600080fd5b506103a5610ea8565b60405161025092919061200d565b3480156103bf57600080fd5b506102796103ce366004611de3565b6110cc565b3480156103df57600080fd5b506103f36103ee366004612064565b611170565b6040516102509291906120f9565b34801561040d57600080fd5b5047610246565b34801561042057600080fd5b506102796111d8565b34801561043557600080fd5b5061024660075481565b34801561044b57600080fd5b5061024660025481565b34801561046157600080fd5b506000546001600160a01b0316610323565b34801561047f57600080fd5b50600754610246565b34801561049457600080fd5b506103236104a3366004611f3e565b6111ec565b3480156104b457600080fd5b506102796111fc565b3480156104c957600080fd5b506102796104d8366004611de3565b6113f1565b3480156104e957600080fd5b50600e54610246565b3480156104fe57600080fd5b5061052261050d366004611de3565b600a6020526000908152604090205460ff1681565b6040519015158152602001610250565b34801561053e57600080fd5b50610547611427565b6040516102509190612151565b34801561056057600080fd5b5061024660065481565b34801561057657600080fd5b50610323610585366004611f3e565b611489565b34801561059657600080fd5b506103236105a5366004611f3e565b611499565b3480156105b657600080fd5b506105226105c5366004611de3565b60086020526000908152604090205460ff1681565b3480156105e657600080fd5b506102466105f5366004611de3565b600b6020526000908152604090205481565b34801561061357600080fd5b506102796114c9565b34801561062857600080fd5b5061063161164e565b6040516102509190612164565b34801561064a57600080fd5b506106316116ae565b34801561065f57600080fd5b5061027961066e366004611de3565b61170e565b34801561067f57600080fd5b5061027961068e366004611de3565b6117c6565b34801561069f57600080fd5b50600354610246565b3480156106b457600080fd5b506102796106c3366004611f3e565b61183f565b6106d061184c565b60005b6005548110156107d757816001600160a01b0316600582815481106106fa576106fa6121b1565b6000918252602090912001546001600160a01b0316036107c55760058054610724906001906121dd565b81548110610734576107346121b1565b600091825260209091200154600580546001600160a01b039092169183908110610760576107606121b1565b9060005260206000200160006101000a8154816001600160a01b0302191690836001600160a01b03160217905550600580548061079f5761079f6121f6565b600082815260209020810160001990810180546001600160a01b03191690550190555050565b806107cf8161220c565b9150506106d3565b5050565b6107e361184c565b6001600160a01b0381166108125760405162461bcd60e51b815260040161080990612225565b60405180910390fd5b475b60006007819055506000826001600160a01b0316826040515b60006040518083038185875af1925050503d806000811461086a576040519150601f19603f3d011682016040523d82523d6000602084013e61086f565b606091505b50509050806108b25760405162461bcd60e51b815260206004820152600f60248201526e151c985b9cd9995c8819985a5b1959608a1b6044820152606401610809565b505050565b336001600160a01b037f000000000000000000000000000000000000000000000000000000000000000016146109315760405163073e64fd60e21b81523360048201526001600160a01b037f0000000000000000000000000000000000000000000000000000000000000000166024820152604401610809565b6107d782826118a6565b6000600d5460ff16600181111561095457610954611e07565b146109935760405162461bcd60e51b815260206004820152600f60248201526e2930b3333632afafa737ba27b832b760891b6044820152606401610809565b6000805b6005548110156109ea57600581815481106109b4576109b46121b1565b6000918252602090912001546001600160a01b031633036109d857600191506109ea565b806109e28161220c565b915050610997565b508015610b2f573360009081526008602052604090205460ff1615610a7c57600254341015610a525760405162461bcd60e51b81526020600482015260146024820152730a4c2ccccd8cabebe9cdee88adcdeeaced08ae8d60631b6044820152606401610809565b336000908152600c602052604081208054349290610a7190849061224e565b90915550610b9d9050565b6002546007541015610ad05760405162461bcd60e51b815260206004820152601a60248201527f526573657276655f5f496e73756666696369656e7446756e64730000000000006044820152606401610809565b60025460076000828254610ae491906121dd565b9091555050600254336000908152600c602052604081208054909190610b0b90849061224e565b9091555050336000908152600860205260409020805460ff19166001179055610b9d565b600254341015610b785760405162461bcd60e51b81526020600482015260146024820152730a4c2ccccd8cabebe9cdee88adcdeeaced08ae8d60631b6044820152606401610809565b336000908152600c602052604081208054349290610b9790849061224e565b90915550505b336000908152600a602052604090205460ff16610c0f576003805460018181019092557fc2575a0e9e593c00f959f8c92f12db2869c3395a3b0502d05e2516446f71f85b0180546001600160a01b031916339081179091556000908152600a60205260409020805460ff191690911790555b60405133907f0805e1d667bddb8a95f0f09880cf94f403fb596ce79928d9f29b74203ba284d490600090a250565b610c4561184c565b600580546001810182556000919091527f036b6384b5eca791c62761152d0c79bb0604c104a5fb6f4eb0703f3154bb3db00180546001600160a01b0319166001600160a01b0392909216919091179055565b60058181548110610ca757600080fd5b6000918252602090912001546001600160a01b0316905081565b600060075460065447610cd491906121dd565b610cde91906121dd565b905090565b6000610cfd60405180602001604052806000815250611170565b50905080610d4c57600354600d5447919060ff166001811115610d2257610d22611e07565b604051632c2193d560e11b8152600481019390935260248301919091526044820152606401610809565b600d805460ff191660019081179091556040516305d3b1d360e41b81527f000000000000000000000000000000000000000000000000000000000000000060048201527f000000000000000000000000000000000000000000000000000000000000000067ffffffffffffffff166024820152600360448201527f000000000000000000000000000000000000000000000000000000000000000063ffffffff16606482015260848101919091526000906001600160a01b037f00000000000000000000000000000000000000000000000000000000000000001690635d3b1d309060a4016020604051808303816000875af1158015610e50573d6000803e3d6000fd5b505050506040513d601f19601f82011682018060405250810190610e749190612261565b60405190915081907f869994f6995b17f6c9dd251cfaa94967469509405aaf1defcb4ed4acce3b3b1a90600090a250505050565b606080600060038054905067ffffffffffffffff811115610ecb57610ecb611e45565b604051908082528060200260200182016040528015610ef4578160200160208202803683370190505b5060035490915060009067ffffffffffffffff811115610f1657610f16611e45565b604051908082528060200260200182016040528015610f3f578160200160208202803683370190505b5090506000805b600354811015610faa57600c600060038381548110610f6757610f676121b1565b60009182526020808320909101546001600160a01b03168352820192909252604001902054610f96908361224e565b915080610fa28161220c565b915050610f46565b5060005b6003548110156110c15760038181548110610fcb57610fcb6121b1565b9060005260206000200160009054906101000a90046001600160a01b0316848281518110610ffb57610ffb6121b1565b6001600160a01b0390921660209283029190910190910152811561108e5781600c600060038481548110611031576110316121b1565b60009182526020808320909101546001600160a01b0316835282019290925260400190205461106190606461227a565b61106b91906122a7565b83828151811061107d5761107d6121b1565b6020026020010181815250506110af565b60008382815181106110a2576110a26121b1565b6020026020010181815250505b806110b98161220c565b915050610fae565b509194909350915050565b6110d461184c565b6001600160a01b0381166110fa5760405162461bcd60e51b815260040161080990612225565b60006006541161114c5760405162461bcd60e51b815260206004820152601760248201527f4e6f20747265617375727920746f207472616e736665720000000000000000006044820152606401610809565b6000600654905060006006819055506000826001600160a01b03168260405161082d565b600d54600090606090829060ff16600181111561118f5761118f611e07565b6003549015915047151590600111158280156111a85750815b80156111b15750805b60408051808201909152600381526203078360ec1b60208201529097909650945050505050565b6111e061184c565b6111ea6000611c8d565b565b60038181548110610ca757600080fd5b336000908152600b6020526040902054806112505760405162461bcd60e51b81526020600482015260146024820152734e6f2077696e6e696e677320746f20636c61696d60601b6044820152606401610809565b600654806112975760405162461bcd60e51b81526020600482015260146024820152734e6f2077696e6e696e677320746f20636c61696d60601b6044820152606401610809565b336000818152600b602052604080822082905560068290555190919084908381818185875af1925050503d80600081146112ed576040519150601f19603f3d011682016040523d82523d6000602084013e6112f2565b606091505b5050604051909150600090339084908381818185875af1925050503d8060008114611339576040519150601f19603f3d011682016040523d82523d6000602084013e61133e565b606091505b505090508161139e5760405162461bcd60e51b815260206004820152602660248201527f4661696c656420746f2073656e642077696e6e696e677320746f2075736572206044820152651dd85b1b195d60d21b6064820152608401610809565b806113eb5760405162461bcd60e51b815260206004820152601e60248201527f4661696c656420746f2073656e642063757420746f20747265617375727900006044820152606401610809565b50505050565b6113f961184c565b6001600160a01b03811661141f5760405162461bcd60e51b815260040161080990612225565b600754610814565b6060600580548060200260200160405190810160405280929190818152602001828054801561147f57602002820191906000526020600020905b81546001600160a01b03168152600190910190602001808311611461575b5050505050905090565b60098181548110610ca757600080fd5b6000600382815481106114ae576114ae6121b1565b6000918252602090912001546001600160a01b031692915050565b6114d161184c565b6114d9611cdd565b6001600d5460ff1660018111156114f2576114f2611e07565b146114fc57600080fd5b60035460005b8181101561162d5760006003828154811061151f5761151f6121b1565b60009182526020822001546002546040516001600160a01b03909216935083918381818185875af1925050503d8060008114611577576040519150601f19603f3d011682016040523d82523d6000602084013e61157c565b606091505b5050905080156115d157600254604080516001600160a01b038516815260208101929092527fa171b6942063c6f2800ce40a780edce37baa2b618571b11eedd1e69e626e7d76910160405180910390a1611618565b600254604080516001600160a01b038516815260208101929092527faf73b0b217208b61be286bbc37095bce7eb8b9ccf617244c2f0f154e8e04e3ff910160405180910390a15b505080806116259061220c565b915050611502565b50600d805460ff1916905561164460036000611d36565b506111ea60018055565b6060600380548060200260200160405190810160405280929190818152602001828054801561147f576020028201919060005260206000209081546001600160a01b03168152600190910190602001808311611461575050505050905090565b6060600980548060200260200160405190810160405280929190818152602001828054801561147f576020028201919060005260206000209081546001600160a01b03168152600190910190602001808311611461575050505050905090565b61171661184c565b6001600160a01b03811661177c5760405162461bcd60e51b815260206004820152602760248201527f4e65772074726561737572792063616e6e6f7420626520746865207a65726f206044820152666164647265737360c81b6064820152608401610809565b600480546001600160a01b0319166001600160a01b0383169081179091556040517fc714d22a2f08b695f81e7c707058db484aa5b4d6b4c9fd64beb10fe85832f60890600090a250565b6117ce61184c565b6001600160a01b0381166118335760405162461bcd60e51b815260206004820152602660248201527f4f776e61626c653a206e6577206f776e657220697320746865207a65726f206160448201526564647265737360d01b6064820152608401610809565b61183c81611c8d565b50565b61184761184c565b600255565b6000546001600160a01b031633146111ea5760405162461bcd60e51b815260206004820181905260248201527f4f776e61626c653a2063616c6c6572206973206e6f7420746865206f776e65726044820152606401610809565b6118b260096000611d36565b600354600111156118fa5760405162461bcd60e51b81526020600482015260126024820152714e6f7420656e6f75676820706c617965727360701b6044820152606401610809565b6000805b60035481101561196257600c60006003838154811061191f5761191f6121b1565b60009182526020808320909101546001600160a01b0316835282019290925260400190205461194e908361224e565b91508061195a8161220c565b9150506118fe565b50600081116119bf5760405162461bcd60e51b8152602060048201526024808201527f546f74616c20636f6e747269627574696f6e73206d75737420626520706f73696044820152637469766560e01b6064820152608401610809565b600081836000815181106119d5576119d56121b1565b60200260200101516119e791906122bb565b905060008060005b600354811015611a8a57600c600060038381548110611a1057611a106121b1565b60009182526020808320909101546001600160a01b03168352820192909252604001902054611a3f908461224e565b925082841015611a785760038181548110611a5c57611a5c6121b1565b6000918252602090912001546001600160a01b03169150611a8a565b80611a828161220c565b9150506119ef565b50600060065447611a9b91906121dd565b905060006064611aac83604b61227a565b611ab691906122a7565b90506064611ac583601461227a565b611acf91906122a7565b6006556064611adf83600561227a565b611ae991906122a7565b6007556001600160a01b0383166000818152600b60205260408082208490556009805460018101825592527f6e1540171b6c0c960b71a7020d9f60077f6af931a8bbf590da0223dacf75c7af90910180546001600160a01b03191683179055517f64791dbae5677392ba76761a5273633cec8f1d9d8cfe808da7bac6ef16a880be90611b789084815260200190565b60405180910390a260005b600354811015611be957600060038281548110611ba257611ba26121b1565b60009182526020808320909101546001600160a01b03168252600c81526040808320839055600a9091529020805460ff191690555080611be18161220c565b915050611b83565b50600d805460ff191690556040805160008152602081019182905251611c1191600391611d54565b5042600e5560005b600554811015611c825760006008600060058481548110611c3c57611c3c6121b1565b6000918252602080832091909101546001600160a01b031683528201929092526040019020805460ff191691151591909117905580611c7a8161220c565b915050611c19565b505050505050505050565b600080546001600160a01b038381166001600160a01b0319831681178455604051919092169283917f8be0079c531659141344cd1fd0a4f28419497f9722a3daafe3b4186f6b6457e09190a35050565b600260015403611d2f5760405162461bcd60e51b815260206004820152601f60248201527f5265656e7472616e637947756172643a207265656e7472616e742063616c6c006044820152606401610809565b6002600155565b508054600082559060005260206000209081019061183c9190611db9565b828054828255906000526020600020908101928215611da9579160200282015b82811115611da957825182546001600160a01b0319166001600160a01b03909116178255602090920191600190910190611d74565b50611db5929150611db9565b5090565b5b80821115611db55760008155600101611dba565b6001600160a01b038116811461183c57600080fd5b600060208284031215611df557600080fd5b8135611e0081611dce565b9392505050565b634e487b7160e01b600052602160045260246000fd5b6020810160028310611e3f57634e487b7160e01b600052602160045260246000fd5b91905290565b634e487b7160e01b600052604160045260246000fd5b604051601f8201601f1916810167ffffffffffffffff81118282101715611e8457611e84611e45565b604052919050565b60008060408385031215611e9f57600080fd5b8235915060208084013567ffffffffffffffff80821115611ebf57600080fd5b818601915086601f830112611ed357600080fd5b813581811115611ee557611ee5611e45565b8060051b9150611ef6848301611e5b565b8181529183018401918481019089841115611f1057600080fd5b938501935b83851015611f2e57843582529385019390850190611f15565b8096505050505050509250929050565b600060208284031215611f5057600080fd5b5035919050565b60008060208385031215611f6a57600080fd5b823567ffffffffffffffff80821115611f8257600080fd5b818501915085601f830112611f9657600080fd5b813581811115611fa557600080fd5b866020828501011115611fb757600080fd5b60209290920196919550909350505050565b600081518084526020808501945080840160005b838110156120025781516001600160a01b031687529582019590820190600101611fdd565b509495945050505050565b6040815260006120206040830185611fc9565b82810360208481019190915284518083528582019282019060005b818110156120575784518352938301939183019160010161203b565b5090979650505050505050565b6000602080838503121561207757600080fd5b823567ffffffffffffffff8082111561208f57600080fd5b818501915085601f8301126120a357600080fd5b8135818111156120b5576120b5611e45565b6120c7601f8201601f19168501611e5b565b915080825286848285010111156120dd57600080fd5b8084840185840137600090820190930192909252509392505050565b821515815260006020604081840152835180604085015260005b8181101561212f57858101830151858201606001528201612113565b506000606082860101526060601f19601f830116850101925050509392505050565b602081526000611e006020830184611fc9565b6020808252825182820181905260009190848201906040850190845b818110156121a55783516001600160a01b031683529284019291840191600101612180565b50909695505050505050565b634e487b7160e01b600052603260045260246000fd5b634e487b7160e01b600052601160045260246000fd5b818103818111156121f0576121f06121c7565b92915050565b634e487b7160e01b600052603160045260246000fd5b60006001820161221e5761221e6121c7565b5060010190565b6020808252600f908201526e496e76616c6964206164647265737360881b604082015260600190565b808201808211156121f0576121f06121c7565b60006020828403121561227357600080fd5b5051919050565b80820281158282048414176121f0576121f06121c7565b634e487b7160e01b600052601260045260246000fd5b6000826122b6576122b6612291565b500490565b6000826122ca576122ca612291565b50069056fea2646970667358221220b9a66066ce9a6ab71b19df923e746de64b5a8e7be637d11018aa5d9ee056b3e564736f6c63430008110033",
  "devdoc": {
    "kind": "dev",
    "methods": {
      "owner()": {
        "details": "Returns the address of the current owner."
      },
      "performUpkeep(bytes)": {
        "details": "Once `checkUpkeep` is returning `true`, this function is called and it kicks off a Chainlink VRF call to get a random winner."
      },
      "renounceOwnership()": {
        "details": "Leaves the contract without owner. It will not be possible to call `onlyOwner` functions. Can only be called by the current owner. NOTE: Renouncing ownership will leave the contract without an owner, thereby disabling any functionality that is only available to the owner."
      },
      "transferOwnership(address)": {
        "details": "Transfers ownership of the contract to a new account (`newOwner`). Can only be called by the current owner."
      }
    },
    "version": 1
  },
  "userdoc": {
    "kind": "user",
    "methods": {
      "checkUpkeep(bytes)": {
        "notice": "CHAINLINK KEEPERS (AUTOMATION) "
      }
    },
    "version": 1
  },
  "storageLayout": {
    "storage": [
      {
        "astId": 219,
        "contract": "contracts/Raffle.sol:Raffle",
        "label": "_owner",
        "offset": 0,
        "slot": "0",
        "type": "t_address"
      },
      {
        "astId": 335,
        "contract": "contracts/Raffle.sol:Raffle",
        "label": "_status",
        "offset": 0,
        "slot": "1",
        "type": "t_uint256"
      },
      {
        "astId": 443,
        "contract": "contracts/Raffle.sol:Raffle",
        "label": "i_entranceFee",
        "offset": 0,
        "slot": "2",
        "type": "t_uint256"
      },
      {
        "astId": 446,
        "contract": "contracts/Raffle.sol:Raffle",
        "label": "s_players",
        "offset": 0,
        "slot": "3",
        "type": "t_array(t_address_payable)dyn_storage"
      },
      {
        "astId": 448,
        "contract": "contracts/Raffle.sol:Raffle",
        "label": "treasuryWallet",
        "offset": 0,
        "slot": "4",
        "type": "t_address_payable"
      },
      {
        "astId": 451,
        "contract": "contracts/Raffle.sol:Raffle",
        "label": "specialWallets",
        "offset": 0,
        "slot": "5",
        "type": "t_array(t_address)dyn_storage"
      },
      {
        "astId": 453,
        "contract": "contracts/Raffle.sol:Raffle",
        "label": "treasuryFund",
        "offset": 0,
        "slot": "6",
        "type": "t_uint256"
      },
      {
        "astId": 455,
        "contract": "contracts/Raffle.sol:Raffle",
        "label": "reserveFunds",
        "offset": 0,
        "slot": "7",
        "type": "t_uint256"
      },
      {
        "astId": 459,
        "contract": "contracts/Raffle.sol:Raffle",
        "label": "hasUsedFreeEntry",
        "offset": 0,
        "slot": "8",
        "type": "t_mapping(t_address,t_bool)"
      },
      {
        "astId": 462,
        "contract": "contracts/Raffle.sol:Raffle",
        "label": "s_recentWinner",
        "offset": 0,
        "slot": "9",
        "type": "t_array(t_address_payable)dyn_storage"
      },
      {
        "astId": 466,
        "contract": "contracts/Raffle.sol:Raffle",
        "label": "isPlayerEntered",
        "offset": 0,
        "slot": "10",
        "type": "t_mapping(t_address,t_bool)"
      },
      {
        "astId": 470,
        "contract": "contracts/Raffle.sol:Raffle",
        "label": "winnings",
        "offset": 0,
        "slot": "11",
        "type": "t_mapping(t_address,t_uint256)"
      },
      {
        "astId": 474,
        "contract": "contracts/Raffle.sol:Raffle",
        "label": "contributions",
        "offset": 0,
        "slot": "12",
        "type": "t_mapping(t_address,t_uint256)"
      },
      {
        "astId": 480,
        "contract": "contracts/Raffle.sol:Raffle",
        "label": "s_raffleState",
        "offset": 0,
        "slot": "13",
        "type": "t_enum(RaffleState)477"
      },
      {
        "astId": 482,
        "contract": "contracts/Raffle.sol:Raffle",
        "label": "s_lastTimeStamp",
        "offset": 0,
        "slot": "14",
        "type": "t_uint256"
      }
    ],
    "types": {
      "t_address": {
        "encoding": "inplace",
        "label": "address",
        "numberOfBytes": "20"
      },
      "t_address_payable": {
        "encoding": "inplace",
        "label": "address payable",
        "numberOfBytes": "20"
      },
      "t_array(t_address)dyn_storage": {
        "base": "t_address",
        "encoding": "dynamic_array",
        "label": "address[]",
        "numberOfBytes": "32"
      },
      "t_array(t_address_payable)dyn_storage": {
        "base": "t_address_payable",
        "encoding": "dynamic_array",
        "label": "address payable[]",
        "numberOfBytes": "32"
      },
      "t_bool": {
        "encoding": "inplace",
        "label": "bool",
        "numberOfBytes": "1"
      },
      "t_enum(RaffleState)477": {
        "encoding": "inplace",
        "label": "enum Raffle.RaffleState",
        "numberOfBytes": "1"
      },
      "t_mapping(t_address,t_bool)": {
        "encoding": "mapping",
        "key": "t_address",
        "label": "mapping(address => bool)",
        "numberOfBytes": "32",
        "value": "t_bool"
      },
      "t_mapping(t_address,t_uint256)": {
        "encoding": "mapping",
        "key": "t_address",
        "label": "mapping(address => uint256)",
        "numberOfBytes": "32",
        "value": "t_uint256"
      },
      "t_uint256": {
        "encoding": "inplace",
        "label": "uint256",
        "numberOfBytes": "32"
      }
    }
  }
}